{
  "_format": "hh-sol-artifact-1",
  "contractName": "RentalMarketplace",
  "sourceName": "contracts/RentalMarketplace.sol",
  "abi": [
    {
      "inputs": [
        {
          "internalType": "address",
          "name": "_accessPass",
          "type": "address"
        },
        {
          "internalType": "address",
          "name": "_usdc",
          "type": "address"
        },
        {
          "internalType": "address",
          "name": "_initialOwner",
          "type": "address"
        }
      ],
      "stateMutability": "nonpayable",
      "type": "constructor"
    },
    {
      "inputs": [
        {
          "internalType": "address",
          "name": "owner",
          "type": "address"
        }
      ],
      "name": "OwnableInvalidOwner",
      "type": "error"
    },
    {
      "inputs": [
        {
          "internalType": "address",
          "name": "account",
          "type": "address"
        }
      ],
      "name": "OwnableUnauthorizedAccount",
      "type": "error"
    },
    {
      "inputs": [],
      "name": "ReentrancyGuardReentrantCall",
      "type": "error"
    },
    {
      "anonymous": false,
      "inputs": [
        {
          "indexed": true,
          "internalType": "uint256",
          "name": "tokenId",
          "type": "uint256"
        }
      ],
      "name": "ListingCancelled",
      "type": "event"
    },
    {
      "anonymous": false,
      "inputs": [
        {
          "indexed": true,
          "internalType": "uint256",
          "name": "tokenId",
          "type": "uint256"
        },
        {
          "indexed": true,
          "internalType": "address",
          "name": "lender",
          "type": "address"
        },
        {
          "indexed": false,
          "internalType": "uint256",
          "name": "pricePerHour",
          "type": "uint256"
        },
        {
          "indexed": false,
          "internalType": "uint256",
          "name": "maxDuration",
          "type": "uint256"
        }
      ],
      "name": "ListingCreated",
      "type": "event"
    },
    {
      "anonymous": false,
      "inputs": [
        {
          "indexed": true,
          "internalType": "address",
          "name": "previousOwner",
          "type": "address"
        },
        {
          "indexed": true,
          "internalType": "address",
          "name": "newOwner",
          "type": "address"
        }
      ],
      "name": "OwnershipTransferred",
      "type": "event"
    },
    {
      "anonymous": false,
      "inputs": [
        {
          "indexed": true,
          "internalType": "uint256",
          "name": "tokenId",
          "type": "uint256"
        },
        {
          "indexed": true,
          "internalType": "address",
          "name": "renter",
          "type": "address"
        },
        {
          "indexed": false,
          "internalType": "uint256",
          "name": "hoursCount",
          "type": "uint256"
        },
        {
          "indexed": false,
          "internalType": "uint256",
          "name": "totalPrice",
          "type": "uint256"
        }
      ],
      "name": "Rented",
      "type": "event"
    },
    {
      "inputs": [],
      "name": "accessPass",
      "outputs": [
        {
          "internalType": "contract IWeb3RadioAccessPass",
          "name": "",
          "type": "address"
        }
      ],
      "stateMutability": "view",
      "type": "function"
    },
    {
      "inputs": [
        {
          "internalType": "uint256",
          "name": "tokenId",
          "type": "uint256"
        }
      ],
      "name": "cancelListing",
      "outputs": [],
      "stateMutability": "nonpayable",
      "type": "function"
    },
    {
      "inputs": [
        {
          "internalType": "uint256",
          "name": "tokenId",
          "type": "uint256"
        },
        {
          "internalType": "uint256",
          "name": "pricePerHour",
          "type": "uint256"
        },
        {
          "internalType": "uint256",
          "name": "maxDuration",
          "type": "uint256"
        }
      ],
      "name": "createListing",
      "outputs": [],
      "stateMutability": "nonpayable",
      "type": "function"
    },
    {
      "inputs": [
        {
          "internalType": "uint256",
          "name": "",
          "type": "uint256"
        }
      ],
      "name": "listings",
      "outputs": [
        {
          "internalType": "address",
          "name": "lender",
          "type": "address"
        },
        {
          "internalType": "uint256",
          "name": "pricePerHour",
          "type": "uint256"
        },
        {
          "internalType": "uint256",
          "name": "maxDuration",
          "type": "uint256"
        },
        {
          "internalType": "bool",
          "name": "isActive",
          "type": "bool"
        }
      ],
      "stateMutability": "view",
      "type": "function"
    },
    {
      "inputs": [],
      "name": "owner",
      "outputs": [
        {
          "internalType": "address",
          "name": "",
          "type": "address"
        }
      ],
      "stateMutability": "view",
      "type": "function"
    },
    {
      "inputs": [],
      "name": "renounceOwnership",
      "outputs": [],
      "stateMutability": "nonpayable",
      "type": "function"
    },
    {
      "inputs": [
        {
          "internalType": "uint256",
          "name": "tokenId",
          "type": "uint256"
        },
        {
          "internalType": "uint256",
          "name": "hoursCount",
          "type": "uint256"
        }
      ],
      "name": "rentWithETH",
      "outputs": [],
      "stateMutability": "payable",
      "type": "function"
    },
    {
      "inputs": [
        {
          "internalType": "uint256",
          "name": "tokenId",
          "type": "uint256"
        },
        {
          "internalType": "uint256",
          "name": "hoursCount",
          "type": "uint256"
        }
      ],
      "name": "rentWithUSDC",
      "outputs": [],
      "stateMutability": "nonpayable",
      "type": "function"
    },
    {
      "inputs": [
        {
          "internalType": "address",
          "name": "newOwner",
          "type": "address"
        }
      ],
      "name": "transferOwnership",
      "outputs": [],
      "stateMutability": "nonpayable",
      "type": "function"
    },
    {
      "inputs": [],
      "name": "usdc",
      "outputs": [
        {
          "internalType": "contract IERC20",
          "name": "",
          "type": "address"
        }
      ],
      "stateMutability": "view",
      "type": "function"
    },
    {
      "inputs": [
        {
          "internalType": "address",
          "name": "token",
          "type": "address"
        }
      ],
      "name": "withdrawERC20",
      "outputs": [],
      "stateMutability": "nonpayable",
      "type": "function"
    },
    {
      "inputs": [],
      "name": "withdrawETH",
      "outputs": [],
      "stateMutability": "nonpayable",
      "type": "function"
    }
  ],
  "bytecode": "0x60c060405234801561001057600080fd5b506040516200112238038062001122833981016040819052610031916100f5565b6001600055806001600160a01b03811661006557604051631e4fbdf760e01b81526000600482015260240160405180910390fd5b61006e81610087565b50506001600160a01b039182166080521660a052610138565b600180546001600160a01b038381166001600160a01b0319831681179093556040519116919082907f8be0079c531659141344cd1fd0a4f28419497f9722a3daafe3b4186f6b6457e090600090a35050565b80516001600160a01b03811681146100f057600080fd5b919050565b60008060006060848603121561010a57600080fd5b610113846100d9565b9250610121602085016100d9565b915061012f604085016100d9565b90509250925092565b60805160a051610f9b62000187600039600081816101440152610a4701526000818160be015281816104000152818161067601528181610742015281816107db0152610b3e0152610f9b6000f3fe6080604052600436106100a75760003560e01c8063b03053b611610064578063b03053b614610199578063cd59e0c1146101b9578063de74e57b146101d9578063e086e5ec14610256578063f2fde38b1461026b578063f4f3b2001461028b57600080fd5b80630d671ed4146100ac5780630eb94288146100fd578063305a67a8146101125780633e413bee14610132578063715018a6146101665780638da5cb5b1461017b575b600080fd5b3480156100b857600080fd5b506100e07f000000000000000000000000000000000000000000000000000000000000000081565b6040516001600160a01b0390911681526020015b60405180910390f35b61011061010b366004610e14565b6102ab565b005b34801561011e57600080fd5b5061011061012d366004610e36565b610589565b34801561013e57600080fd5b506100e07f000000000000000000000000000000000000000000000000000000000000000081565b34801561017257600080fd5b50610110610642565b34801561018757600080fd5b506001546001600160a01b03166100e0565b3480156101a557600080fd5b506101106101b4366004610e4f565b610656565b3480156101c557600080fd5b506101106101d4366004610e14565b610952565b3480156101e557600080fd5b5061022a6101f4366004610e36565b600260208190526000918252604090912080546001820154928201546003909201546001600160a01b0390911692919060ff1684565b604080516001600160a01b039095168552602085019390935291830152151560608201526080016100f4565b34801561026257600080fd5b50610110610bec565b34801561027757600080fd5b50610110610286366004610e90565b610c30565b34801561029757600080fd5b506101106102a6366004610e90565b610c6b565b6102b3610d6b565b6000828152600260205260409020600381015460ff1661030f5760405162461bcd60e51b81526020600482015260126024820152714c697374696e67206e6f742061637469766560701b60448201526064015b60405180910390fd5b600082118015610323575080600201548211155b6103625760405162461bcd60e51b815260206004820152601060248201526f24b73b30b634b210323ab930ba34b7b760811b6044820152606401610306565b60008282600101546103749190610eca565b9050803410156103b95760405162461bcd60e51b815260206004820152601060248201526f092dce6eaccccd2c6d2cadce8408aa8960831b6044820152606401610306565b60006103c784610e10610eca565b6103d19042610ee7565b6040516370182b2f60e11b81526004810187905233602482015267ffffffffffffffff821660448201529091507f00000000000000000000000000000000000000000000000000000000000000006001600160a01b03169063e030565e90606401600060405180830381600087803b15801561044c57600080fd5b505af1158015610460573d6000803e3d6000fd5b50508454604051600093506001600160a01b03909116915084908381818185875af1925050503d80600081146104b2576040519150601f19603f3d011682016040523d82523d6000602084013e6104b7565b606091505b50509050806104fa5760405162461bcd60e51b815260206004820152600f60248201526e151c985b9cd9995c8819985a5b1959608a1b6044820152606401610306565b8234111561053a57336108fc6105108534610efa565b6040518115909202916000818181858888f19350505050158015610538573d6000803e3d6000fd5b505b6040805186815260208101859052339188917fcea8ef445f087e63df6f242396764cabddc0c40f6ed03ede0a0ce1feb5404b71910160405180910390a3505050506105856001600055565b5050565b6000818152600260205260409020546001600160a01b031633146105e05760405162461bcd60e51b815260206004820152600e60248201526d2737ba103a3432903632b73232b960911b6044820152606401610306565b600081815260026020819052604080832080546001600160a01b0319168155600181018490559182018390556003909101805460ff191690555182917f411aee90354c51b1b04cd563fcab2617142a9d50da19232d888547c8a1b7fd8a91a250565b61064a610d95565b6106546000610dc2565b565b6040516331a9108f60e11b81526004810184905233906001600160a01b037f00000000000000000000000000000000000000000000000000000000000000001690636352211e90602401602060405180830381865afa1580156106bd573d6000803e3d6000fd5b505050506040513d601f19601f820116820180604052508101906106e19190610f0d565b6001600160a01b0316146107275760405162461bcd60e51b815260206004820152600d60248201526c2737ba103a34329037bbb732b960991b6044820152606401610306565b60405163e985e9c560e01b81523360048201523060248201527f00000000000000000000000000000000000000000000000000000000000000006001600160a01b03169063e985e9c590604401602060405180830381865afa158015610791573d6000803e3d6000fd5b505050506040513d601f19601f820116820180604052508101906107b59190610f2a565b80610851575060405163020604bf60e21b81526004810184905230906001600160a01b037f0000000000000000000000000000000000000000000000000000000000000000169063081812fc90602401602060405180830381865afa158015610822573d6000803e3d6000fd5b505050506040513d601f19601f820116820180604052508101906108469190610f0d565b6001600160a01b0316145b61089d5760405162461bcd60e51b815260206004820152601860248201527f4d61726b6574706c616365206e6f7420617070726f76656400000000000000006044820152606401610306565b6040805160808101825233808252602080830186815283850186815260016060860181815260008b8152600280875290899020975188546001600160a01b0319166001600160a01b03909116178855935191870191909155905191850191909155516003909301805460ff19169315159390931790925582518581529182018490529185917f12dc294b81a709d694b1337a350a12a00076c19a77a25aab67a5f0c07e0f164d910160405180910390a3505050565b61095a610d6b565b6000828152600260205260409020600381015460ff166109b15760405162461bcd60e51b81526020600482015260126024820152714c697374696e67206e6f742061637469766560701b6044820152606401610306565b6000821180156109c5575080600201548211155b610a045760405162461bcd60e51b815260206004820152601060248201526f24b73b30b634b210323ab930ba34b7b760811b6044820152606401610306565b6000828260010154610a169190610eca565b82546040516323b872dd60e01b81523360048201526001600160a01b039182166024820152604481018390529192507f000000000000000000000000000000000000000000000000000000000000000016906323b872dd906064016020604051808303816000875af1158015610a90573d6000803e3d6000fd5b505050506040513d601f19601f82011682018060405250810190610ab49190610f2a565b610af75760405162461bcd60e51b81526020600482015260146024820152731554d110c81d1c985b9cd9995c8819985a5b195960621b6044820152606401610306565b6000610b0584610e10610eca565b610b0f9042610ee7565b6040516370182b2f60e11b81526004810187905233602482015267ffffffffffffffff821660448201529091507f00000000000000000000000000000000000000000000000000000000000000006001600160a01b03169063e030565e90606401600060405180830381600087803b158015610b8a57600080fd5b505af1158015610b9e573d6000803e3d6000fd5b505060408051878152602081018690523393508892507fcea8ef445f087e63df6f242396764cabddc0c40f6ed03ede0a0ce1feb5404b71910160405180910390a35050506105856001600055565b610bf4610d95565b6001546040516001600160a01b03909116904780156108fc02916000818181858888f19350505050158015610c2d573d6000803e3d6000fd5b50565b610c38610d95565b6001600160a01b038116610c6257604051631e4fbdf760e01b815260006004820152602401610306565b610c2d81610dc2565b610c73610d95565b806001600160a01b031663a9059cbb610c946001546001600160a01b031690565b6040516370a0823160e01b81523060048201526001600160a01b038516906370a0823190602401602060405180830381865afa158015610cd8573d6000803e3d6000fd5b505050506040513d601f19601f82011682018060405250810190610cfc9190610f4c565b6040516001600160e01b031960e085901b1681526001600160a01b03909216600483015260248201526044016020604051808303816000875af1158015610d47573d6000803e3d6000fd5b505050506040513d601f19601f820116820180604052508101906105859190610f2a565b600260005403610d8e57604051633ee5aeb560e01b815260040160405180910390fd5b6002600055565b6001546001600160a01b031633146106545760405163118cdaa760e01b8152336004820152602401610306565b600180546001600160a01b038381166001600160a01b0319831681179093556040519116919082907f8be0079c531659141344cd1fd0a4f28419497f9722a3daafe3b4186f6b6457e090600090a35050565b60008060408385031215610e2757600080fd5b50508035926020909101359150565b600060208284031215610e4857600080fd5b5035919050565b600080600060608486031215610e6457600080fd5b505081359360208301359350604090920135919050565b6001600160a01b0381168114610c2d57600080fd5b600060208284031215610ea257600080fd5b8135610ead81610e7b565b9392505050565b634e487b7160e01b600052601160045260246000fd5b8082028115828204841417610ee157610ee1610eb4565b92915050565b80820180821115610ee157610ee1610eb4565b81810381811115610ee157610ee1610eb4565b600060208284031215610f1f57600080fd5b8151610ead81610e7b565b600060208284031215610f3c57600080fd5b81518015158114610ead57600080fd5b600060208284031215610f5e57600080fd5b505191905056fea26469706673582212209c0d78675b9ec53eeded67ad771541305d9f2196186b55bcb622033a12b5f04264736f6c63430008140033",
  "linkReferences": {},
  "deployedLinkReferences": {}
}