{
  "_format": "hh-sol-artifact-1",
  "contractName": "Web3RadioAccessPass",
  "sourceName": "contracts/Web3RadioAccessPass.sol",
  "abi": [
    {
      "inputs": [
        {
          "internalType": "address",
          "name": "initialOwner",
          "type": "address"
        }
      ],
      "stateMutability": "nonpayable",
      "type": "constructor"
    },
    {
      "inputs": [
        {
          "internalType": "address",
          "name": "sender",
          "type": "address"
        },
        {
          "internalType": "uint256",
          "name": "tokenId",
          "type": "uint256"
        },
        {
          "internalType": "address",
          "name": "owner",
          "type": "address"
        }
      ],
      "name": "ERC721IncorrectOwner",
      "type": "error"
    },
    {
      "inputs": [
        {
          "internalType": "address",
          "name": "operator",
          "type": "address"
        },
        {
          "internalType": "uint256",
          "name": "tokenId",
          "type": "uint256"
        }
      ],
      "name": "ERC721InsufficientApproval",
      "type": "error"
    },
    {
      "inputs": [
        {
          "internalType": "address",
          "name": "approver",
          "type": "address"
        }
      ],
      "name": "ERC721InvalidApprover",
      "type": "error"
    },
    {
      "inputs": [
        {
          "internalType": "address",
          "name": "operator",
          "type": "address"
        }
      ],
      "name": "ERC721InvalidOperator",
      "type": "error"
    },
    {
      "inputs": [
        {
          "internalType": "address",
          "name": "owner",
          "type": "address"
        }
      ],
      "name": "ERC721InvalidOwner",
      "type": "error"
    },
    {
      "inputs": [
        {
          "internalType": "address",
          "name": "receiver",
          "type": "address"
        }
      ],
      "name": "ERC721InvalidReceiver",
      "type": "error"
    },
    {
      "inputs": [
        {
          "internalType": "address",
          "name": "sender",
          "type": "address"
        }
      ],
      "name": "ERC721InvalidSender",
      "type": "error"
    },
    {
      "inputs": [
        {
          "internalType": "uint256",
          "name": "tokenId",
          "type": "uint256"
        }
      ],
      "name": "ERC721NonexistentToken",
      "type": "error"
    },
    {
      "inputs": [
        {
          "internalType": "address",
          "name": "owner",
          "type": "address"
        }
      ],
      "name": "OwnableInvalidOwner",
      "type": "error"
    },
    {
      "inputs": [
        {
          "internalType": "address",
          "name": "account",
          "type": "address"
        }
      ],
      "name": "OwnableUnauthorizedAccount",
      "type": "error"
    },
    {
      "anonymous": false,
      "inputs": [
        {
          "indexed": true,
          "internalType": "address",
          "name": "owner",
          "type": "address"
        },
        {
          "indexed": true,
          "internalType": "address",
          "name": "approved",
          "type": "address"
        },
        {
          "indexed": true,
          "internalType": "uint256",
          "name": "tokenId",
          "type": "uint256"
        }
      ],
      "name": "Approval",
      "type": "event"
    },
    {
      "anonymous": false,
      "inputs": [
        {
          "indexed": true,
          "internalType": "address",
          "name": "owner",
          "type": "address"
        },
        {
          "indexed": true,
          "internalType": "address",
          "name": "operator",
          "type": "address"
        },
        {
          "indexed": false,
          "internalType": "bool",
          "name": "approved",
          "type": "bool"
        }
      ],
      "name": "ApprovalForAll",
      "type": "event"
    },
    {
      "anonymous": false,
      "inputs": [
        {
          "indexed": true,
          "internalType": "address",
          "name": "previousOwner",
          "type": "address"
        },
        {
          "indexed": true,
          "internalType": "address",
          "name": "newOwner",
          "type": "address"
        }
      ],
      "name": "OwnershipTransferred",
      "type": "event"
    },
    {
      "anonymous": false,
      "inputs": [
        {
          "indexed": true,
          "internalType": "address",
          "name": "from",
          "type": "address"
        },
        {
          "indexed": true,
          "internalType": "address",
          "name": "to",
          "type": "address"
        },
        {
          "indexed": true,
          "internalType": "uint256",
          "name": "tokenId",
          "type": "uint256"
        }
      ],
      "name": "Transfer",
      "type": "event"
    },
    {
      "anonymous": false,
      "inputs": [
        {
          "indexed": true,
          "internalType": "uint256",
          "name": "tokenId",
          "type": "uint256"
        },
        {
          "indexed": true,
          "internalType": "address",
          "name": "user",
          "type": "address"
        },
        {
          "indexed": false,
          "internalType": "uint64",
          "name": "expires",
          "type": "uint64"
        }
      ],
      "name": "UpdateUser",
      "type": "event"
    },
    {
      "inputs": [],
      "name": "REGULAR_SUPPLY",
      "outputs": [
        {
          "internalType": "uint256",
          "name": "",
          "type": "uint256"
        }
      ],
      "stateMutability": "view",
      "type": "function"
    },
    {
      "inputs": [],
      "name": "SUPER_START_ID",
      "outputs": [
        {
          "internalType": "uint256",
          "name": "",
          "type": "uint256"
        }
      ],
      "stateMutability": "view",
      "type": "function"
    },
    {
      "inputs": [],
      "name": "SUPER_SUPPLY",
      "outputs": [
        {
          "internalType": "uint256",
          "name": "",
          "type": "uint256"
        }
      ],
      "stateMutability": "view",
      "type": "function"
    },
    {
      "inputs": [],
      "name": "accessPaused",
      "outputs": [
        {
          "internalType": "bool",
          "name": "",
          "type": "bool"
        }
      ],
      "stateMutability": "view",
      "type": "function"
    },
    {
      "inputs": [
        {
          "internalType": "address",
          "name": "to",
          "type": "address"
        },
        {
          "internalType": "uint256",
          "name": "tokenId",
          "type": "uint256"
        }
      ],
      "name": "approve",
      "outputs": [],
      "stateMutability": "nonpayable",
      "type": "function"
    },
    {
      "inputs": [
        {
          "internalType": "address",
          "name": "owner",
          "type": "address"
        }
      ],
      "name": "balanceOf",
      "outputs": [
        {
          "internalType": "uint256",
          "name": "",
          "type": "uint256"
        }
      ],
      "stateMutability": "view",
      "type": "function"
    },
    {
      "inputs": [
        {
          "internalType": "uint256",
          "name": "tokenId",
          "type": "uint256"
        },
        {
          "internalType": "uint8",
          "name": "hour",
          "type": "uint8"
        }
      ],
      "name": "claimSuperHour",
      "outputs": [],
      "stateMutability": "nonpayable",
      "type": "function"
    },
    {
      "inputs": [],
      "name": "currentWeekIndex",
      "outputs": [
        {
          "internalType": "uint256",
          "name": "",
          "type": "uint256"
        }
      ],
      "stateMutability": "view",
      "type": "function"
    },
    {
      "inputs": [
        {
          "internalType": "uint256",
          "name": "tokenId",
          "type": "uint256"
        }
      ],
      "name": "effectiveHolder",
      "outputs": [
        {
          "internalType": "address",
          "name": "",
          "type": "address"
        }
      ],
      "stateMutability": "view",
      "type": "function"
    },
    {
      "inputs": [
        {
          "internalType": "uint256",
          "name": "tokenId",
          "type": "uint256"
        }
      ],
      "name": "getApproved",
      "outputs": [
        {
          "internalType": "address",
          "name": "",
          "type": "address"
        }
      ],
      "stateMutability": "view",
      "type": "function"
    },
    {
      "inputs": [
        {
          "internalType": "address",
          "name": "wallet",
          "type": "address"
        }
      ],
      "name": "hasAccessNow",
      "outputs": [
        {
          "internalType": "bool",
          "name": "",
          "type": "bool"
        }
      ],
      "stateMutability": "view",
      "type": "function"
    },
    {
      "inputs": [
        {
          "internalType": "address",
          "name": "wallet",
          "type": "address"
        }
      ],
      "name": "hasRegularAccess",
      "outputs": [
        {
          "internalType": "bool",
          "name": "",
          "type": "bool"
        }
      ],
      "stateMutability": "view",
      "type": "function"
    },
    {
      "inputs": [
        {
          "internalType": "address",
          "name": "wallet",
          "type": "address"
        }
      ],
      "name": "hasSuperAccess",
      "outputs": [
        {
          "internalType": "bool",
          "name": "",
          "type": "bool"
        }
      ],
      "stateMutability": "view",
      "type": "function"
    },
    {
      "inputs": [
        {
          "internalType": "address",
          "name": "owner",
          "type": "address"
        },
        {
          "internalType": "address",
          "name": "operator",
          "type": "address"
        }
      ],
      "name": "isApprovedForAll",
      "outputs": [
        {
          "internalType": "bool",
          "name": "",
          "type": "bool"
        }
      ],
      "stateMutability": "view",
      "type": "function"
    },
    {
      "inputs": [
        {
          "internalType": "uint256",
          "name": "tokenId",
          "type": "uint256"
        }
      ],
      "name": "isSuper",
      "outputs": [
        {
          "internalType": "bool",
          "name": "",
          "type": "bool"
        }
      ],
      "stateMutability": "pure",
      "type": "function"
    },
    {
      "inputs": [],
      "name": "name",
      "outputs": [
        {
          "internalType": "string",
          "name": "",
          "type": "string"
        }
      ],
      "stateMutability": "view",
      "type": "function"
    },
    {
      "inputs": [],
      "name": "owner",
      "outputs": [
        {
          "internalType": "address",
          "name": "",
          "type": "address"
        }
      ],
      "stateMutability": "view",
      "type": "function"
    },
    {
      "inputs": [
        {
          "internalType": "uint256",
          "name": "tokenId",
          "type": "uint256"
        }
      ],
      "name": "ownerOf",
      "outputs": [
        {
          "internalType": "address",
          "name": "",
          "type": "address"
        }
      ],
      "stateMutability": "view",
      "type": "function"
    },
    {
      "inputs": [
        {
          "internalType": "bool",
          "name": "paused",
          "type": "bool"
        }
      ],
      "name": "pauseAccess",
      "outputs": [],
      "stateMutability": "nonpayable",
      "type": "function"
    },
    {
      "inputs": [],
      "name": "renounceOwnership",
      "outputs": [],
      "stateMutability": "nonpayable",
      "type": "function"
    },
    {
      "inputs": [
        {
          "internalType": "address",
          "name": "from",
          "type": "address"
        },
        {
          "internalType": "address",
          "name": "to",
          "type": "address"
        },
        {
          "internalType": "uint256",
          "name": "tokenId",
          "type": "uint256"
        }
      ],
      "name": "safeTransferFrom",
      "outputs": [],
      "stateMutability": "nonpayable",
      "type": "function"
    },
    {
      "inputs": [
        {
          "internalType": "address",
          "name": "from",
          "type": "address"
        },
        {
          "internalType": "address",
          "name": "to",
          "type": "address"
        },
        {
          "internalType": "uint256",
          "name": "tokenId",
          "type": "uint256"
        },
        {
          "internalType": "bytes",
          "name": "data",
          "type": "bytes"
        }
      ],
      "name": "safeTransferFrom",
      "outputs": [],
      "stateMutability": "nonpayable",
      "type": "function"
    },
    {
      "inputs": [
        {
          "internalType": "address",
          "name": "operator",
          "type": "address"
        },
        {
          "internalType": "bool",
          "name": "approved",
          "type": "bool"
        }
      ],
      "name": "setApprovalForAll",
      "outputs": [],
      "stateMutability": "nonpayable",
      "type": "function"
    },
    {
      "inputs": [
        {
          "internalType": "uint256",
          "name": "tokenId",
          "type": "uint256"
        },
        {
          "internalType": "address",
          "name": "user",
          "type": "address"
        },
        {
          "internalType": "uint64",
          "name": "expires",
          "type": "uint64"
        }
      ],
      "name": "setUser",
      "outputs": [],
      "stateMutability": "nonpayable",
      "type": "function"
    },
    {
      "inputs": [
        {
          "internalType": "uint256",
          "name": "",
          "type": "uint256"
        }
      ],
      "name": "superClaims",
      "outputs": [
        {
          "internalType": "uint8",
          "name": "claimedHour",
          "type": "uint8"
        },
        {
          "internalType": "uint256",
          "name": "weekIndex",
          "type": "uint256"
        }
      ],
      "stateMutability": "view",
      "type": "function"
    },
    {
      "inputs": [
        {
          "internalType": "bytes4",
          "name": "interfaceId",
          "type": "bytes4"
        }
      ],
      "name": "supportsInterface",
      "outputs": [
        {
          "internalType": "bool",
          "name": "",
          "type": "bool"
        }
      ],
      "stateMutability": "view",
      "type": "function"
    },
    {
      "inputs": [],
      "name": "symbol",
      "outputs": [
        {
          "internalType": "string",
          "name": "",
          "type": "string"
        }
      ],
      "stateMutability": "view",
      "type": "function"
    },
    {
      "inputs": [
        {
          "internalType": "uint256",
          "name": "",
          "type": "uint256"
        }
      ],
      "name": "timeSlots",
      "outputs": [
        {
          "internalType": "uint8",
          "name": "day",
          "type": "uint8"
        },
        {
          "internalType": "uint8",
          "name": "hour",
          "type": "uint8"
        }
      ],
      "stateMutability": "view",
      "type": "function"
    },
    {
      "inputs": [
        {
          "internalType": "uint256",
          "name": "tokenId",
          "type": "uint256"
        }
      ],
      "name": "tokenURI",
      "outputs": [
        {
          "internalType": "string",
          "name": "",
          "type": "string"
        }
      ],
      "stateMutability": "view",
      "type": "function"
    },
    {
      "inputs": [
        {
          "internalType": "address",
          "name": "from",
          "type": "address"
        },
        {
          "internalType": "address",
          "name": "to",
          "type": "address"
        },
        {
          "internalType": "uint256",
          "name": "tokenId",
          "type": "uint256"
        }
      ],
      "name": "transferFrom",
      "outputs": [],
      "stateMutability": "nonpayable",
      "type": "function"
    },
    {
      "inputs": [
        {
          "internalType": "address",
          "name": "newOwner",
          "type": "address"
        }
      ],
      "name": "transferOwnership",
      "outputs": [],
      "stateMutability": "nonpayable",
      "type": "function"
    },
    {
      "inputs": [
        {
          "internalType": "uint256",
          "name": "tokenId",
          "type": "uint256"
        }
      ],
      "name": "userOf",
      "outputs": [
        {
          "internalType": "address",
          "name": "",
          "type": "address"
        }
      ],
      "stateMutability": "view",
      "type": "function"
    }
  ],
  "bytecode": "0x60806040523480156200001157600080fd5b506040516200213b3803806200213b833981016040819052620000349162000614565b806040518060400160405280601581526020017f57656233526164696f20416363657373205061737300000000000000000000008152506040518060400160405280600a8152602001695733522d41434345535360b01b81525081600090816200009f9190620006ea565b506001620000ae8282620006ea565b5050506001600160a01b038116620000e157604051631e4fbdf760e01b8152600060048201526024015b60405180910390fd5b620000ec81620001f2565b5060005b60078160ff161015620001a95760005b60188160ff16101562000193576000816200011d846018620007cc565b620001299190620007f2565b60ff1690506200013a848262000244565b60408051808201825260ff808616825284811660208084019182526000958652600790529290932090518154925184166101000261ffff19909316931692909217179055806200018a816200080e565b91505062000100565b5080620001a0816200080e565b915050620000f0565b5060005b60078160ff161015620001ea57620001d582620001cf60ff841660a862000830565b62000244565b80620001e1816200080e565b915050620001ad565b505062000846565b600680546001600160a01b038381166001600160a01b0319831681179093556040519116919082907f8be0079c531659141344cd1fd0a4f28419497f9722a3daafe3b4186f6b6457e090600090a35050565b6001600160a01b0382166200027057604051633250574960e11b815260006004820152602401620000d8565b60006200027f838383620002b3565b90506001600160a01b03811615620002ae576040516339e3563760e11b815260006004820152602401620000d8565b505050565b6000828152600260205260408120546001600160a01b0390811690831615620002e357620002e3818486620003b2565b6001600160a01b0381161562000323576200030260008581806200041c565b6001600160a01b038116600090815260036020526040902080546000190190555b6001600160a01b0385161562000353576001600160a01b0385166000908152600360205260409020805460010190555b60008481526002602052604080822080546001600160a01b0319166001600160a01b0389811691821790925591518793918516917fddf252ad1be2c89b69c2b068fc378daa952ba7f163c4a11628f55a4df523b3ef91a4949350505050565b620003bf8383836200054a565b620002ae576001600160a01b038316620003f057604051637e27328960e01b815260048101829052602401620000d8565b60405163177e802f60e01b81526001600160a01b038316600482015260248101829052604401620000d8565b80806200043157506001600160a01b03821615155b156200051a5760006200044484620005d3565b90506001600160a01b03831615801590620004715750826001600160a01b0316816001600160a01b031614155b8015620004a457506001600160a01b0380821660009081526005602090815260408083209387168352929052205460ff16155b15620004cf5760405163a9fbf51f60e01b81526001600160a01b0384166004820152602401620000d8565b8115620005185783856001600160a01b0316826001600160a01b03167f8c5be1e5ebec7d5bd14f71427d1e84f3dd0314c0f7b2291e5b200ac8c7c3b92560405160405180910390a45b505b5050600090815260046020526040902080546001600160a01b0319166001600160a01b0392909216919091179055565b60006001600160a01b03831615801590620005cb5750826001600160a01b0316846001600160a01b03161480620005a657506001600160a01b0380851660009081526005602090815260408083209387168352929052205460ff165b80620005cb57506000828152600460205260409020546001600160a01b038481169116145b949350505050565b6000818152600260205260408120546001600160a01b0316806200060e57604051637e27328960e01b815260048101849052602401620000d8565b92915050565b6000602082840312156200062757600080fd5b81516001600160a01b03811681146200063f57600080fd5b9392505050565b634e487b7160e01b600052604160045260246000fd5b600181811c908216806200067157607f821691505b6020821081036200069257634e487b7160e01b600052602260045260246000fd5b50919050565b601f821115620002ae57600081815260208120601f850160051c81016020861015620006c15750805b601f850160051c820191505b81811015620006e257828155600101620006cd565b505050505050565b81516001600160401b0381111562000706576200070662000646565b6200071e816200071784546200065c565b8462000698565b602080601f8311600181146200075657600084156200073d5750858301515b600019600386901b1c1916600185901b178555620006e2565b600085815260208120601f198616915b82811015620007875788860151825594840194600190910190840162000766565b5085821015620007a65787850151600019600388901b60f8161c191681555b5050505050600190811b01905550565b634e487b7160e01b600052601160045260246000fd5b60ff8181168382160290811690818114620007eb57620007eb620007b6565b5092915050565b60ff81811683821601908111156200060e576200060e620007b6565b600060ff821660ff8103620008275762000827620007b6565b60010192915050565b808201808211156200060e576200060e620007b6565b6118e580620008566000396000f3fe608060405234801561001057600080fd5b50600436106101f05760003560e01c80638da5cb5b1161010f578063c2f1f14a116100a2578063da9c685e11610071578063da9c685e1461045c578063e030565e1461046f578063e985e9c514610482578063f2fde38b1461049557600080fd5b8063c2f1f14a1461041b578063c87b56dd1461042e578063cf4ce1e414610441578063cf7a76fc1461044957600080fd5b8063a81ff58e116100de578063a81ff58e14610360578063b0496bd0146103ed578063b3d1f73714610400578063b88d4fde1461040857600080fd5b80638da5cb5b146103ae578063917d20f8146103bf57806395d89b41146103d2578063a22cb465146103da57600080fd5b80633e9c155d1161018757806370a082311161015657806370a0823114610337578063715018a6146103585780637fa177221461036057806386e1c04f1461036857600080fd5b80633e9c155d146102f157806342842e0e146102fe5780636352211e146103115780636ebdadbc1461032457600080fd5b8063095ea7b3116101c3578063095ea7b3146102a35780631da345ae146102b857806323b872dd146102cb57806333a23db0146102de57600080fd5b806301ffc9a7146101f5578063054ea69f1461021d57806306fdde0314610263578063081812fc14610278575b600080fd5b61020861020336600461141b565b6104a8565b60405190151581526020015b60405180910390f35b61024a61022b366004611438565b6009602052600090815260409020805460019091015460ff9091169082565b6040805160ff9093168352602083019190915201610214565b61026b6104fa565b60405161021491906114a1565b61028b610286366004611438565b61058c565b6040516001600160a01b039091168152602001610214565b6102b66102b13660046114cb565b6105b5565b005b6102086102c6366004611438565b6105c4565b6102b66102d93660046114f5565b6105e6565b6102086102ec366004611531565b610676565b600a546102089060ff1681565b6102b661030c3660046114f5565b61076b565b61028b61031f366004611438565b61078b565b610208610332366004611531565b610796565b61034a610345366004611531565b6107f9565b604051908152602001610214565b6102b6610841565b61034a60a881565b610394610376366004611438565b60076020526000908152604090205460ff8082169161010090041682565b6040805160ff938416815292909116602083015201610214565b6006546001600160a01b031661028b565b61028b6103cd366004611438565b610855565b61026b610888565b6102b66103e836600461155c565b610897565b6102b66103fb36600461158f565b6108a2565b61034a6108bd565b6102b66104163660046115c0565b6108dc565b61028b610429366004611438565b6108f4565b61026b61043c366004611438565b61093f565b61034a600781565b610208610457366004611531565b6109b3565b6102b661046a36600461169c565b610a3d565b6102b661047d3660046116d2565b610bee565b61020861049036600461171f565b610cde565b6102b66104a3366004611531565b610d0c565b60006001600160e01b031982166380ac58cd60e01b14806104d957506001600160e01b03198216635b5e139f60e01b145b806104f457506301ffc9a760e01b6001600160e01b03198316145b92915050565b60606000805461050990611749565b80601f016020809104026020016040519081016040528092919081815260200182805461053590611749565b80156105825780601f1061055757610100808354040283529160200191610582565b820191906000526020600020905b81548152906001019060200180831161056557829003601f168201915b5050505050905090565b600061059782610d4a565b506000828152600460205260409020546001600160a01b03166104f4565b6105c0828233610d83565b5050565b600060a882101580156104f457506105de600760a8611799565b821092915050565b6001600160a01b03821661061557604051633250574960e11b8152600060048201526024015b60405180910390fd5b6000610622838333610d90565b9050836001600160a01b0316816001600160a01b031614610670576040516364283d7b60e01b81526001600160a01b038086166004830152602482018490528216604482015260640161060c565b50505050565b600080610685610e10426117c2565b905060006106946018836117d6565b9050600060076106a56018856117c2565b6106b0906003611799565b6106ba91906117d6565b905060006106cc60ff831660a8611799565b90506106d7816105c4565b6106e75750600095945050505050565b856001600160a01b03166106fa82610855565b6001600160a01b0316146107145750600095945050505050565b6000818152600960209081526040918290208251808401909352805460ff16835260010154908201526107456108bd565b816020015114801561076057508360ff16816000015160ff16145b979650505050505050565b610786838383604051806020016040528060008152506108dc565b505050565b60006104f482610d4a565b600a5460009060ff16156107dc5760405162461bcd60e51b815260206004820152600d60248201526c1058d8d95cdcc81c185d5cd959609a1b604482015260640161060c565b6107e5826109b3565b806104f457506104f482610676565b919050565b60006001600160a01b038216610825576040516322718ad960e21b81526000600482015260240161060c565b506001600160a01b031660009081526003602052604090205490565b610849610e89565b6108536000610eb6565b565b600080610861836108f4565b90506001600160a01b03811661087f5761087a8361078b565b610881565b805b9392505050565b60606001805461050990611749565b6105c0338383610f08565b6108aa610e89565b600a805460ff1916911515919091179055565b600060a86108cd610e10426117c2565b6108d791906117c2565b905090565b6108e78484846105e6565b6106703385858585610f9f565b60008181526008602052604081205442600160a01b90910467ffffffffffffffff161061093757506000908152600860205260409020546001600160a01b031690565b506000919050565b606061094a82610d4a565b50600061096260408051602081019091526000815290565b905060008151116109825760405180602001604052806000815250610881565b8061098c846110ca565b60405160200161099d9291906117ea565b6040516020818303038152906040529392505050565b6000806109c2610e10426117c2565b905060006109d16018836117d6565b9050600060076109e26018856117c2565b6109ed906003611799565b6109f791906117d6565b9050600082610a07836018611819565b610a11919061183c565b60ff169050856001600160a01b0316610a2982610855565b6001600160a01b0316149695505050505050565b600a5460ff1615610a805760405162461bcd60e51b815260206004820152600d60248201526c1058d8d95cdcc81c185d5cd959609a1b604482015260640161060c565b610a89826105c4565b610ac85760405162461bcd60e51b815260206004820152601060248201526f4e6f742073757065722061636365737360801b604482015260640161060c565b60188160ff1610610b0a5760405162461bcd60e51b815260206004820152600c60248201526b24b73b30b634b2103437bab960a11b604482015260640161060c565b6000610b1583610855565b9050336001600160a01b03821614610b605760405162461bcd60e51b815260206004820152600e60248201526d139bdd08185d5d1a1bdc9a5e995960921b604482015260640161060c565b6000610b6a6108bd565b60008581526009602052604090206001810154919250908211610bcf5760405162461bcd60e51b815260206004820152601960248201527f416c726561647920636c61696d65642074686973207765656b00000000000000604482015260640161060c565b805460ff191660ff949094169390931783556001909201919091555050565b610c01610bfa8461078b565b338561115d565b610c465760405162461bcd60e51b8152602060048201526016602482015275139bdd081bdddb995c881b9bdc88185c1c1c9bdd995960521b604482015260640161060c565b6040805180820182526001600160a01b0384811680835267ffffffffffffffff858116602080860182815260008b81526008835288902096518754915196166001600160e01b031990911617600160a01b959093169490940291909117909355925191825285917f4e06b4e7000e659094299b3533b47b6aa8ad048e95e872d23d1f4ee55af89cfe91015b60405180910390a3505050565b6001600160a01b03918216600090815260056020908152604080832093909416825291909152205460ff1690565b610d14610e89565b6001600160a01b038116610d3e57604051631e4fbdf760e01b81526000600482015260240161060c565b610d4781610eb6565b50565b6000818152600260205260408120546001600160a01b03168061087f57604051637e27328960e01b81526004810184905260240161060c565b61078683838360016111c3565b6000828152600260205260408120546001600160a01b0390811690831615610dbd57610dbd8184866112c9565b6001600160a01b03811615610dfb57610dda6000856000806111c3565b6001600160a01b038116600090815260036020526040902080546000190190555b6001600160a01b03851615610e2a576001600160a01b0385166000908152600360205260409020805460010190555b60008481526002602052604080822080546001600160a01b0319166001600160a01b0389811691821790925591518793918516917fddf252ad1be2c89b69c2b068fc378daa952ba7f163c4a11628f55a4df523b3ef91a4949350505050565b6006546001600160a01b031633146108535760405163118cdaa760e01b815233600482015260240161060c565b600680546001600160a01b038381166001600160a01b0319831681179093556040519116919082907f8be0079c531659141344cd1fd0a4f28419497f9722a3daafe3b4186f6b6457e090600090a35050565b6001600160a01b038216610f3a57604051630b61174360e31b81526001600160a01b038316600482015260240161060c565b6001600160a01b03838116600081815260056020908152604080832094871680845294825291829020805460ff191686151590811790915591519182527f17307eab39ab6107e8899845ad3d59bd9653f200f220920489ca2b5937696c319101610cd1565b6001600160a01b0383163b156110c357604051630a85bd0160e11b81526001600160a01b0384169063150b7a0290610fe1908890889087908790600401611855565b6020604051808303816000875af192505050801561101c575060408051601f3d908101601f1916820190925261101991810190611892565b60015b611085573d80801561104a576040519150601f19603f3d011682016040523d82523d6000602084013e61104f565b606091505b50805160000361107d57604051633250574960e11b81526001600160a01b038516600482015260240161060c565b805160208201fd5b6001600160e01b03198116630a85bd0160e11b146110c157604051633250574960e11b81526001600160a01b038516600482015260240161060c565b505b5050505050565b606060006110d78361132d565b600101905060008167ffffffffffffffff8111156110f7576110f76115aa565b6040519080825280601f01601f191660200182016040528015611121576020820181803683370190505b5090508181016020015b600019016f181899199a1a9b1b9c1cb0b131b232b360811b600a86061a8153600a850494508461112b57509392505050565b60006001600160a01b038316158015906111bb5750826001600160a01b0316846001600160a01b0316148061119757506111978484610cde565b806111bb57506000828152600460205260409020546001600160a01b038481169116145b949350505050565b80806111d757506001600160a01b03821615155b156112995760006111e784610d4a565b90506001600160a01b038316158015906112135750826001600160a01b0316816001600160a01b031614155b801561122657506112248184610cde565b155b1561124f5760405163a9fbf51f60e01b81526001600160a01b038416600482015260240161060c565b81156112975783856001600160a01b0316826001600160a01b03167f8c5be1e5ebec7d5bd14f71427d1e84f3dd0314c0f7b2291e5b200ac8c7c3b92560405160405180910390a45b505b5050600090815260046020526040902080546001600160a01b0319166001600160a01b0392909216919091179055565b6112d483838361115d565b610786576001600160a01b03831661130257604051637e27328960e01b81526004810182905260240161060c565b60405163177e802f60e01b81526001600160a01b03831660048201526024810182905260440161060c565b60008072184f03e93ff9f4daa797ed6e38ed64bf6a1f0160401b831061136c5772184f03e93ff9f4daa797ed6e38ed64bf6a1f0160401b830492506040015b6d04ee2d6d415b85acef81000000008310611398576d04ee2d6d415b85acef8100000000830492506020015b662386f26fc1000083106113b657662386f26fc10000830492506010015b6305f5e10083106113ce576305f5e100830492506008015b61271083106113e257612710830492506004015b606483106113f4576064830492506002015b600a831061087f5760010192915050565b6001600160e01b031981168114610d4757600080fd5b60006020828403121561142d57600080fd5b813561088181611405565b60006020828403121561144a57600080fd5b5035919050565b60005b8381101561146c578181015183820152602001611454565b50506000910152565b6000815180845261148d816020860160208601611451565b601f01601f19169290920160200192915050565b6020815260006108816020830184611475565b80356001600160a01b03811681146107f457600080fd5b600080604083850312156114de57600080fd5b6114e7836114b4565b946020939093013593505050565b60008060006060848603121561150a57600080fd5b611513846114b4565b9250611521602085016114b4565b9150604084013590509250925092565b60006020828403121561154357600080fd5b610881826114b4565b803580151581146107f457600080fd5b6000806040838503121561156f57600080fd5b611578836114b4565b91506115866020840161154c565b90509250929050565b6000602082840312156115a157600080fd5b6108818261154c565b634e487b7160e01b600052604160045260246000fd5b600080600080608085870312156115d657600080fd5b6115df856114b4565b93506115ed602086016114b4565b925060408501359150606085013567ffffffffffffffff8082111561161157600080fd5b818701915087601f83011261162557600080fd5b813581811115611637576116376115aa565b604051601f8201601f19908116603f0116810190838211818310171561165f5761165f6115aa565b816040528281528a602084870101111561167857600080fd5b82602086016020830137600060208483010152809550505050505092959194509250565b600080604083850312156116af57600080fd5b82359150602083013560ff811681146116c757600080fd5b809150509250929050565b6000806000606084860312156116e757600080fd5b833592506116f7602085016114b4565b9150604084013567ffffffffffffffff8116811461171457600080fd5b809150509250925092565b6000806040838503121561173257600080fd5b61173b836114b4565b9150611586602084016114b4565b600181811c9082168061175d57607f821691505b60208210810361177d57634e487b7160e01b600052602260045260246000fd5b50919050565b634e487b7160e01b600052601160045260246000fd5b808201808211156104f4576104f4611783565b634e487b7160e01b600052601260045260246000fd5b6000826117d1576117d16117ac565b500490565b6000826117e5576117e56117ac565b500690565b600083516117fc818460208801611451565b835190830190611810818360208801611451565b01949350505050565b60ff818116838216029081169081811461183557611835611783565b5092915050565b60ff81811683821601908111156104f4576104f4611783565b6001600160a01b038581168252841660208201526040810183905260806060820181905260009061188890830184611475565b9695505050505050565b6000602082840312156118a457600080fd5b81516108818161140556fea2646970667358221220c7b844fe74f0a6cf867ea5b7db070573d1f2f05fe7dafe307346a5413d1f3a9f64736f6c63430008140033",
  "linkReferences": {},
  "deployedLinkReferences": {}
}